{
  "contractName": "StarNotary",
  "abi": [
    {
      "constant": true,
      "inputs": [
        {
          "name": "interfaceId",
          "type": "bytes4"
        }
      ],
      "name": "supportsInterface",
      "outputs": [
        {
          "name": "",
          "type": "bool"
        }
      ],
      "payable": false,
      "stateMutability": "view",
      "type": "function"
    },
    {
      "constant": true,
      "inputs": [
        {
          "name": "",
          "type": "uint256"
        }
      ],
      "name": "starsForSale",
      "outputs": [
        {
          "name": "",
          "type": "uint256"
        }
      ],
      "payable": false,
      "stateMutability": "view",
      "type": "function"
    },
    {
      "constant": true,
      "inputs": [
        {
          "name": "tokenId",
          "type": "uint256"
        }
      ],
      "name": "getApproved",
      "outputs": [
        {
          "name": "",
          "type": "address"
        }
      ],
      "payable": false,
      "stateMutability": "view",
      "type": "function"
    },
    {
      "constant": false,
      "inputs": [
        {
          "name": "to",
          "type": "address"
        },
        {
          "name": "tokenId",
          "type": "uint256"
        }
      ],
      "name": "approve",
      "outputs": [],
      "payable": false,
      "stateMutability": "nonpayable",
      "type": "function"
    },
    {
      "constant": true,
      "inputs": [
        {
          "name": "",
          "type": "uint256"
        }
      ],
      "name": "tokenIdToStarInfo",
      "outputs": [
        {
          "name": "name",
          "type": "string"
        },
        {
          "name": "story",
          "type": "string"
        },
        {
          "name": "dec",
          "type": "string"
        },
        {
          "name": "mag",
          "type": "string"
        },
        {
          "name": "cent",
          "type": "string"
        }
      ],
      "payable": false,
      "stateMutability": "view",
      "type": "function"
    },
    {
      "constant": false,
      "inputs": [
        {
          "name": "from",
          "type": "address"
        },
        {
          "name": "to",
          "type": "address"
        },
        {
          "name": "tokenId",
          "type": "uint256"
        }
      ],
      "name": "transferFrom",
      "outputs": [],
      "payable": false,
      "stateMutability": "nonpayable",
      "type": "function"
    },
    {
      "constant": false,
      "inputs": [
        {
          "name": "from",
          "type": "address"
        },
        {
          "name": "to",
          "type": "address"
        },
        {
          "name": "tokenId",
          "type": "uint256"
        }
      ],
      "name": "safeTransferFrom",
      "outputs": [],
      "payable": false,
      "stateMutability": "nonpayable",
      "type": "function"
    },
    {
      "constant": true,
      "inputs": [
        {
          "name": "tokenId",
          "type": "uint256"
        }
      ],
      "name": "ownerOf",
      "outputs": [
        {
          "name": "",
          "type": "address"
        }
      ],
      "payable": false,
      "stateMutability": "view",
      "type": "function"
    },
    {
      "constant": true,
      "inputs": [
        {
          "name": "owner",
          "type": "address"
        }
      ],
      "name": "balanceOf",
      "outputs": [
        {
          "name": "",
          "type": "uint256"
        }
      ],
      "payable": false,
      "stateMutability": "view",
      "type": "function"
    },
    {
      "constant": false,
      "inputs": [
        {
          "name": "to",
          "type": "address"
        },
        {
          "name": "approved",
          "type": "bool"
        }
      ],
      "name": "setApprovalForAll",
      "outputs": [],
      "payable": false,
      "stateMutability": "nonpayable",
      "type": "function"
    },
    {
      "constant": false,
      "inputs": [
        {
          "name": "from",
          "type": "address"
        },
        {
          "name": "to",
          "type": "address"
        },
        {
          "name": "tokenId",
          "type": "uint256"
        },
        {
          "name": "_data",
          "type": "bytes"
        }
      ],
      "name": "safeTransferFrom",
      "outputs": [],
      "payable": false,
      "stateMutability": "nonpayable",
      "type": "function"
    },
    {
      "constant": true,
      "inputs": [
        {
          "name": "owner",
          "type": "address"
        },
        {
          "name": "operator",
          "type": "address"
        }
      ],
      "name": "isApprovedForAll",
      "outputs": [
        {
          "name": "",
          "type": "bool"
        }
      ],
      "payable": false,
      "stateMutability": "view",
      "type": "function"
    },
    {
      "anonymous": false,
      "inputs": [
        {
          "indexed": true,
          "name": "_tokenId",
          "type": "uint256"
        },
        {
          "indexed": true,
          "name": "_price",
          "type": "uint256"
        }
      ],
      "name": "PutForSell",
      "type": "event"
    },
    {
      "anonymous": false,
      "inputs": [
        {
          "indexed": true,
          "name": "from",
          "type": "address"
        },
        {
          "indexed": true,
          "name": "to",
          "type": "address"
        },
        {
          "indexed": true,
          "name": "tokenId",
          "type": "uint256"
        }
      ],
      "name": "Transfer",
      "type": "event"
    },
    {
      "anonymous": false,
      "inputs": [
        {
          "indexed": true,
          "name": "owner",
          "type": "address"
        },
        {
          "indexed": true,
          "name": "approved",
          "type": "address"
        },
        {
          "indexed": true,
          "name": "tokenId",
          "type": "uint256"
        }
      ],
      "name": "Approval",
      "type": "event"
    },
    {
      "anonymous": false,
      "inputs": [
        {
          "indexed": true,
          "name": "owner",
          "type": "address"
        },
        {
          "indexed": true,
          "name": "operator",
          "type": "address"
        },
        {
          "indexed": false,
          "name": "approved",
          "type": "bool"
        }
      ],
      "name": "ApprovalForAll",
      "type": "event"
    },
    {
      "constant": false,
      "inputs": [
        {
          "name": "_name",
          "type": "string"
        },
        {
          "name": "_story",
          "type": "string"
        },
        {
          "name": "_dec",
          "type": "string"
        },
        {
          "name": "_mag",
          "type": "string"
        },
        {
          "name": "_cent",
          "type": "string"
        },
        {
          "name": "_tokenId",
          "type": "uint256"
        }
      ],
      "name": "createStar",
      "outputs": [],
      "payable": false,
      "stateMutability": "nonpayable",
      "type": "function"
    },
    {
      "constant": false,
      "inputs": [
        {
          "name": "_tokenId",
          "type": "uint256"
        },
        {
          "name": "_price",
          "type": "uint256"
        }
      ],
      "name": "putStarUpForSale",
      "outputs": [],
      "payable": false,
      "stateMutability": "nonpayable",
      "type": "function"
    },
    {
      "constant": false,
      "inputs": [
        {
          "name": "_tokenId",
          "type": "uint256"
        }
      ],
      "name": "buyStar",
      "outputs": [],
      "payable": true,
      "stateMutability": "payable",
      "type": "function"
    },
    {
      "constant": true,
      "inputs": [
        {
          "name": "_dec",
          "type": "string"
        },
        {
          "name": "_mag",
          "type": "string"
        },
        {
          "name": "_cent",
          "type": "string"
        }
      ],
      "name": "checkIfStarExist",
      "outputs": [
        {
          "name": "",
          "type": "bool"
        }
      ],
      "payable": false,
      "stateMutability": "view",
      "type": "function"
    }
  ],
  "bytecode": "0x6080604052620000416301ffc9a77c01000000000000000000000000000000000000000000000000000000000262000084640100000000026401000000009004565b6200007e6380ac58cd7c01000000000000000000000000000000000000000000000000000000000262000084640100000000026401000000009004565b62000142565b63ffffffff7c010000000000000000000000000000000000000000000000000000000002817bffffffffffffffffffffffffffffffffffffffffffffffffffffffff191614151515620000d657600080fd5b6001600080837bffffffffffffffffffffffffffffffffffffffffffffffffffffffff19167bffffffffffffffffffffffffffffffffffffffffffffffffffffffff1916815260200190815260200160002060006101000a81548160ff02191690831515021790555050565b6128de80620001526000396000f3006080604052600436106100e6576000357c0100000000000000000000000000000000000000000000000000000000900463ffffffff16806301ffc9a7146100eb5780630384153d1461014f5780630564b1301461025c578063081812fc1461029d578063095ea7b31461030a5780631967fd981461035757806323b872dd146105ad5780632f1c34ef1461061a578063316a43611461063a57806342842e0e146106715780636352211e146106de57806370a082311461074b578063a22cb465146107a2578063b250ced0146107f1578063b88d4fde1461097c578063e985e9c514610a2f575b600080fd5b3480156100f757600080fd5b5061013560048036038101908080357bffffffffffffffffffffffffffffffffffffffffffffffffffffffff19169060200190929190505050610aaa565b604051808215151515815260200191505060405180910390f35b34801561015b57600080fd5b50610242600480360381019080803590602001908201803590602001908080601f0160208091040260200160405190810160405280939291908181526020018383808284378201915050505050509192919290803590602001908201803590602001908080601f0160208091040260200160405190810160405280939291908181526020018383808284378201915050505050509192919290803590602001908201803590602001908080601f0160208091040260200160405190810160405280939291908181526020018383808284378201915050505050509192919290505050610b11565b604051808215151515815260200191505060405180910390f35b34801561026857600080fd5b5061028760048036038101908080359060200190929190505050611146565b6040518082815260200191505060405180910390f35b3480156102a957600080fd5b506102c86004803603810190808035906020019092919050505061115e565b604051808273ffffffffffffffffffffffffffffffffffffffff1673ffffffffffffffffffffffffffffffffffffffff16815260200191505060405180910390f35b34801561031657600080fd5b50610355600480360381019080803573ffffffffffffffffffffffffffffffffffffffff169060200190929190803590602001909291905050506111af565b005b34801561036357600080fd5b50610382600480360381019080803590602001909291905050506112f4565b60405180806020018060200180602001806020018060200186810386528b818151815260200191508051906020019080838360005b838110156103d25780820151818401526020810190506103b7565b50505050905090810190601f1680156103ff5780820380516001836020036101000a031916815260200191505b5086810385528a818151815260200191508051906020019080838360005b8381101561043857808201518184015260208101905061041d565b50505050905090810190601f1680156104655780820380516001836020036101000a031916815260200191505b50868103845289818151815260200191508051906020019080838360005b8381101561049e578082015181840152602081019050610483565b50505050905090810190601f1680156104cb5780820380516001836020036101000a031916815260200191505b50868103835288818151815260200191508051906020019080838360005b838110156105045780820151818401526020810190506104e9565b50505050905090810190601f1680156105315780820380516001836020036101000a031916815260200191505b50868103825287818151815260200191508051906020019080838360005b8381101561056a57808201518184015260208101905061054f565b50505050905090810190601f1680156105975780820380516001836020036101000a031916815260200191505b509a505050505050505050505060405180910390f35b3480156105b957600080fd5b50610618600480360381019080803573ffffffffffffffffffffffffffffffffffffffff169060200190929190803573ffffffffffffffffffffffffffffffffffffffff16906020019092919080359060200190929190505050611622565b005b610638600480360381019080803590602001909291905050506116f1565b005b34801561064657600080fd5b5061066f60048036038101908080359060200190929190803590602001909291905050506119b7565b005b34801561067d57600080fd5b506106dc600480360381019080803573ffffffffffffffffffffffffffffffffffffffff169060200190929190803573ffffffffffffffffffffffffffffffffffffffff16906020019092919080359060200190929190505050611b73565b005b3480156106ea57600080fd5b5061070960048036038101908080359060200190929190505050611b94565b604051808273ffffffffffffffffffffffffffffffffffffffff1673ffffffffffffffffffffffffffffffffffffffff16815260200191505060405180910390f35b34801561075757600080fd5b5061078c600480360381019080803573ffffffffffffffffffffffffffffffffffffffff169060200190929190505050611c12565b6040518082815260200191505060405180910390f35b3480156107ae57600080fd5b506107ef600480360381019080803573ffffffffffffffffffffffffffffffffffffffff169060200190929190803515159060200190929190505050611c96565b005b3480156107fd57600080fd5b5061097a600480360381019080803590602001908201803590602001908080601f0160208091040260200160405190810160405280939291908181526020018383808284378201915050505050509192919290803590602001908201803590602001908080601f0160208091040260200160405190810160405280939291908181526020018383808284378201915050505050509192919290803590602001908201803590602001908080601f0160208091040260200160405190810160405280939291908181526020018383808284378201915050505050509192919290803590602001908201803590602001908080601f0160208091040260200160405190810160405280939291908181526020018383808284378201915050505050509192919290803590602001908201803590602001908080601f016020809104026020016040519081016040528093929190818152602001838380828437820191505050505050919291929080359060200190929190505050611dd2565b005b34801561098857600080fd5b50610a2d600480360381019080803573ffffffffffffffffffffffffffffffffffffffff169060200190929190803573ffffffffffffffffffffffffffffffffffffffff16906020019092919080359060200190929190803590602001908201803590602001908080601f0160208091040260200160405190810160405280939291908181526020018383808284378201915050505050509192919290505050611f71565b005b348015610a3b57600080fd5b50610a90600480360381019080803573ffffffffffffffffffffffffffffffffffffffff169060200190929190803573ffffffffffffffffffffffffffffffffffffffff169060200190929190505050611f99565b604051808215151515815260200191505060405180910390f35b6000806000837bffffffffffffffffffffffffffffffffffffffffffffffffffffffff19167bffffffffffffffffffffffffffffffffffffffffffffffffffffffff1916815260200190815260200160002060009054906101000a900460ff169050919050565b600080600080610b1f6127dd565b600093505b60078054905083101561113857600783815481101515610b4057fe5b906000526020600020015491506005600083815260200190815260200160002060a06040519081016040529081600082018054600181600116156101000203166002900480601f016020809104026020016040519081016040528092919081815260200182805460018160011615610100020316600290048015610c055780601f10610bda57610100808354040283529160200191610c05565b820191906000526020600020905b815481529060010190602001808311610be857829003601f168201915b50505050508152602001600182018054600181600116156101000203166002900480601f016020809104026020016040519081016040528092919081815260200182805460018160011615610100020316600290048015610ca75780601f10610c7c57610100808354040283529160200191610ca7565b820191906000526020600020905b815481529060010190602001808311610c8a57829003601f168201915b50505050508152602001600282018054600181600116156101000203166002900480601f016020809104026020016040519081016040528092919081815260200182805460018160011615610100020316600290048015610d495780601f10610d1e57610100808354040283529160200191610d49565b820191906000526020600020905b815481529060010190602001808311610d2c57829003601f168201915b50505050508152602001600382018054600181600116156101000203166002900480601f016020809104026020016040519081016040528092919081815260200182805460018160011615610100020316600290048015610deb5780601f10610dc057610100808354040283529160200191610deb565b820191906000526020600020905b815481529060010190602001808311610dce57829003601f168201915b50505050508152602001600482018054600181600116156101000203166002900480601f016020809104026020016040519081016040528092919081815260200182805460018160011615610100020316600290048015610e8d5780601f10610e6257610100808354040283529160200191610e8d565b820191906000526020600020905b815481529060010190602001808311610e7057829003601f168201915b5050505050815250509050876040518082805190602001908083835b602083101515610ece5780518252602082019150602081019050602083039250610ea9565b6001836020036101000a03801982511681845116808217855250505050505090500191505060405180910390206000191681604001516040518082805190602001908083835b602083101515610f395780518252602082019150602081019050602083039250610f14565b6001836020036101000a0380198251168184511680821785525050505050509050019150506040518091039020600019161480156110465750866040518082805190602001908083835b602083101515610fa85780518252602082019150602081019050602083039250610f83565b6001836020036101000a03801982511681845116808217855250505050505090500191505060405180910390206000191681606001516040518082805190602001908083835b6020831015156110135780518252602082019150602081019050602083039250610fee565b6001836020036101000a038019825116818451168082178552505050505050905001915050604051809103902060001916145b80156111215750856040518082805190602001908083835b602083101515611083578051825260208201915060208101905060208303925061105e565b6001836020036101000a03801982511681845116808217855250505050505090500191505060405180910390206000191681608001516040518082805190602001908083835b6020831015156110ee57805182526020820191506020810190506020830392506110c9565b6001836020036101000a038019825116818451168082178552505050505050905001915050604051809103902060001916145b1561112b57600193505b8280600101935050610b24565b839450505050509392505050565b60066020528060005260406000206000915090505481565b60006111698261202d565b151561117457600080fd5b6002600083815260200190815260200160002060009054906101000a900473ffffffffffffffffffffffffffffffffffffffff169050919050565b60006111ba82611b94565b90508073ffffffffffffffffffffffffffffffffffffffff168373ffffffffffffffffffffffffffffffffffffffff16141515156111f757600080fd5b8073ffffffffffffffffffffffffffffffffffffffff163373ffffffffffffffffffffffffffffffffffffffff16148061123757506112368133611f99565b5b151561124257600080fd5b826002600084815260200190815260200160002060006101000a81548173ffffffffffffffffffffffffffffffffffffffff021916908373ffffffffffffffffffffffffffffffffffffffff160217905550818373ffffffffffffffffffffffffffffffffffffffff168273ffffffffffffffffffffffffffffffffffffffff167f8c5be1e5ebec7d5bd14f71427d1e84f3dd0314c0f7b2291e5b200ac8c7c3b92560405160405180910390a4505050565b6005602052806000526040600020600091509050806000018054600181600116156101000203166002900480601f0160208091040260200160405190810160405280929190818152602001828054600181600116156101000203166002900480156113a05780601f10611375576101008083540402835291602001916113a0565b820191906000526020600020905b81548152906001019060200180831161138357829003601f168201915b505050505090806001018054600181600116156101000203166002900480601f01602080910402602001604051908101604052809291908181526020018280546001816001161561010002031660029004801561143e5780601f106114135761010080835404028352916020019161143e565b820191906000526020600020905b81548152906001019060200180831161142157829003601f168201915b505050505090806002018054600181600116156101000203166002900480601f0160208091040260200160405190810160405280929190818152602001828054600181600116156101000203166002900480156114dc5780601f106114b1576101008083540402835291602001916114dc565b820191906000526020600020905b8154815290600101906020018083116114bf57829003601f168201915b505050505090806003018054600181600116156101000203166002900480601f01602080910402602001604051908101604052809291908181526020018280546001816001161561010002031660029004801561157a5780601f1061154f5761010080835404028352916020019161157a565b820191906000526020600020905b81548152906001019060200180831161155d57829003601f168201915b505050505090806004018054600181600116156101000203166002900480601f0160208091040260200160405190810160405280929190818152602001828054600181600116156101000203166002900480156116185780601f106115ed57610100808354040283529160200191611618565b820191906000526020600020905b8154815290600101906020018083116115fb57829003601f168201915b5050505050905085565b61162c338261209f565b151561163757600080fd5b600073ffffffffffffffffffffffffffffffffffffffff168273ffffffffffffffffffffffffffffffffffffffff161415151561167357600080fd5b61167d8382612134565b6116878382612237565b6116918282612366565b808273ffffffffffffffffffffffffffffffffffffffff168473ffffffffffffffffffffffffffffffffffffffff167fddf252ad1be2c89b69c2b068fc378daa952ba7f163c4a11628f55a4df523b3ef60405160405180910390a4505050565b600080600060066000858152602001908152602001600020541115156117a5576040517f08c379a00000000000000000000000000000000000000000000000000000000081526004018080602001828103825260278152602001807f546865207374617220796f752074727920746f20627579206973206e6f74206681526020017f6f722073616c650000000000000000000000000000000000000000000000000081525060400191505060405180910390fd5b600660008481526020019081526020016000205491503073ffffffffffffffffffffffffffffffffffffffff16636352211e846040518263ffffffff167c010000000000000000000000000000000000000000000000000000000002815260040180828152602001915050602060405180830381600087803b15801561182a57600080fd5b505af115801561183e573d6000803e3d6000fd5b505050506040513d602081101561185457600080fd5b81019080805190602001909291905050509050813410151515611905576040517f08c379a000000000000000000000000000000000000000000000000000000000815260040180806020018281038252602a8152602001807f596f757220707269636520646f65736e2774206669742077697468207468652081526020017f737461722070726963650000000000000000000000000000000000000000000081525060400191505060405180910390fd5b61190f8184612237565b6119193384612366565b8073ffffffffffffffffffffffffffffffffffffffff166108fc839081150290604051600060405180830381858888f1935050505015801561195f573d6000803e3d6000fd5b50813411156119b2573373ffffffffffffffffffffffffffffffffffffffff166108fc8334039081150290604051600060405180830381858888f193505050501580156119b0573d6000803e3d6000fd5b505b505050565b3373ffffffffffffffffffffffffffffffffffffffff163073ffffffffffffffffffffffffffffffffffffffff16636352211e846040518263ffffffff167c010000000000000000000000000000000000000000000000000000000002815260040180828152602001915050602060405180830381600087803b158015611a3d57600080fd5b505af1158015611a51573d6000803e3d6000fd5b505050506040513d6020811015611a6757600080fd5b810190808051906020019092919050505073ffffffffffffffffffffffffffffffffffffffff16141515611b29576040517f08c379a00000000000000000000000000000000000000000000000000000000081526004018080602001828103825260318152602001807f596f752063616e27742073656c6c2061207374617220776869636820646f657381526020017f6e27742062656c6f6e6720746f20796f7500000000000000000000000000000081525060400191505060405180910390fd5b80600660008481526020019081526020016000208190555080827fd08dd29b026b8c99afad40631b8dba5654ce8491bf223a4b6c27f74a0abd131160405160405180910390a35050565b611b8f8383836020604051908101604052806000815250611f71565b505050565b6000806001600084815260200190815260200160002060009054906101000a900473ffffffffffffffffffffffffffffffffffffffff169050600073ffffffffffffffffffffffffffffffffffffffff168173ffffffffffffffffffffffffffffffffffffffff1614151515611c0957600080fd5b80915050919050565b60008073ffffffffffffffffffffffffffffffffffffffff168273ffffffffffffffffffffffffffffffffffffffff1614151515611c4f57600080fd5b600360008373ffffffffffffffffffffffffffffffffffffffff1673ffffffffffffffffffffffffffffffffffffffff168152602001908152602001600020549050919050565b3373ffffffffffffffffffffffffffffffffffffffff168273ffffffffffffffffffffffffffffffffffffffff1614151515611cd157600080fd5b80600460003373ffffffffffffffffffffffffffffffffffffffff1673ffffffffffffffffffffffffffffffffffffffff16815260200190815260200160002060008473ffffffffffffffffffffffffffffffffffffffff1673ffffffffffffffffffffffffffffffffffffffff16815260200190815260200160002060006101000a81548160ff0219169083151502179055508173ffffffffffffffffffffffffffffffffffffffff163373ffffffffffffffffffffffffffffffffffffffff167f17307eab39ab6107e8899845ad3d59bd9653f200f220920489ca2b5937696c3183604051808215151515815260200191505060405180910390a35050565b611dda6127dd565b60001515611de9868686610b11565b1515141515611e60576040517f08c379a000000000000000000000000000000000000000000000000000000000815260040180806020018281038252601e8152602001807f5468697320737461722077617320616c726561647920636c61696d656421000081525060200191505060405180910390fd5b60a06040519081016040528088815260200187815260200186815260200185815260200184815250905080600560008481526020019081526020016000206000820151816000019080519060200190611eba92919061280d565b506020820151816001019080519060200190611ed792919061280d565b506040820151816002019080519060200190611ef492919061280d565b506060820151816003019080519060200190611f1192919061280d565b506080820151816004019080519060200190611f2e92919061280d565b50905050611f3c33836124c0565b600782908060018154018082558091505090600182039060005260206000200160009091929091909150555050505050505050565b611f7c848484611622565b611f8884848484612566565b1515611f9357600080fd5b50505050565b6000600460008473ffffffffffffffffffffffffffffffffffffffff1673ffffffffffffffffffffffffffffffffffffffff16815260200190815260200160002060008373ffffffffffffffffffffffffffffffffffffffff1673ffffffffffffffffffffffffffffffffffffffff16815260200190815260200160002060009054906101000a900460ff16905092915050565b6000806001600084815260200190815260200160002060009054906101000a900473ffffffffffffffffffffffffffffffffffffffff169050600073ffffffffffffffffffffffffffffffffffffffff168173ffffffffffffffffffffffffffffffffffffffff161415915050919050565b6000806120ab83611b94565b90508073ffffffffffffffffffffffffffffffffffffffff168473ffffffffffffffffffffffffffffffffffffffff16148061211a57508373ffffffffffffffffffffffffffffffffffffffff166121028461115e565b73ffffffffffffffffffffffffffffffffffffffff16145b8061212b575061212a8185611f99565b5b91505092915050565b8173ffffffffffffffffffffffffffffffffffffffff1661215482611b94565b73ffffffffffffffffffffffffffffffffffffffff1614151561217657600080fd5b600073ffffffffffffffffffffffffffffffffffffffff166002600083815260200190815260200160002060009054906101000a900473ffffffffffffffffffffffffffffffffffffffff1673ffffffffffffffffffffffffffffffffffffffff161415156122335760006002600083815260200190815260200160002060006101000a81548173ffffffffffffffffffffffffffffffffffffffff021916908373ffffffffffffffffffffffffffffffffffffffff1602179055505b5050565b8173ffffffffffffffffffffffffffffffffffffffff1661225782611b94565b73ffffffffffffffffffffffffffffffffffffffff1614151561227957600080fd5b6122cc6001600360008573ffffffffffffffffffffffffffffffffffffffff1673ffffffffffffffffffffffffffffffffffffffff1681526020019081526020016000205461278890919063ffffffff16565b600360008473ffffffffffffffffffffffffffffffffffffffff1673ffffffffffffffffffffffffffffffffffffffff1681526020019081526020016000208190555060006001600083815260200190815260200160002060006101000a81548173ffffffffffffffffffffffffffffffffffffffff021916908373ffffffffffffffffffffffffffffffffffffffff1602179055505050565b600073ffffffffffffffffffffffffffffffffffffffff166001600083815260200190815260200160002060009054906101000a900473ffffffffffffffffffffffffffffffffffffffff1673ffffffffffffffffffffffffffffffffffffffff161415156123d457600080fd5b816001600083815260200190815260200160002060006101000a81548173ffffffffffffffffffffffffffffffffffffffff021916908373ffffffffffffffffffffffffffffffffffffffff1602179055506124796001600360008573ffffffffffffffffffffffffffffffffffffffff1673ffffffffffffffffffffffffffffffffffffffff168152602001908152602001600020546127a990919063ffffffff16565b600360008473ffffffffffffffffffffffffffffffffffffffff1673ffffffffffffffffffffffffffffffffffffffff168152602001908152602001600020819055505050565b600073ffffffffffffffffffffffffffffffffffffffff168273ffffffffffffffffffffffffffffffffffffffff16141515156124fc57600080fd5b6125068282612366565b808273ffffffffffffffffffffffffffffffffffffffff16600073ffffffffffffffffffffffffffffffffffffffff167fddf252ad1be2c89b69c2b068fc378daa952ba7f163c4a11628f55a4df523b3ef60405160405180910390a45050565b6000806125888573ffffffffffffffffffffffffffffffffffffffff166127ca565b1515612597576001915061277f565b8473ffffffffffffffffffffffffffffffffffffffff1663150b7a02338887876040518563ffffffff167c0100000000000000000000000000000000000000000000000000000000028152600401808573ffffffffffffffffffffffffffffffffffffffff1673ffffffffffffffffffffffffffffffffffffffff1681526020018473ffffffffffffffffffffffffffffffffffffffff1673ffffffffffffffffffffffffffffffffffffffff16815260200183815260200180602001828103825283818151815260200191508051906020019080838360005b8381101561268c578082015181840152602081019050612671565b50505050905090810190601f1680156126b95780820380516001836020036101000a031916815260200191505b5095505050505050602060405180830381600087803b1580156126db57600080fd5b505af11580156126ef573d6000803e3d6000fd5b505050506040513d602081101561270557600080fd5b8101908080519060200190929190505050905063150b7a027c0100000000000000000000000000000000000000000000000000000000027bffffffffffffffffffffffffffffffffffffffffffffffffffffffff1916817bffffffffffffffffffffffffffffffffffffffffffffffffffffffff19161491505b50949350505050565b60008083831115151561279a57600080fd5b82840390508091505092915050565b60008082840190508381101515156127c057600080fd5b8091505092915050565b600080823b905060008111915050919050565b60a06040519081016040528060608152602001606081526020016060815260200160608152602001606081525090565b828054600181600116156101000203166002900490600052602060002090601f016020900481019282601f1061284e57805160ff191683800117855561287c565b8280016001018555821561287c579182015b8281111561287b578251825591602001919060010190612860565b5b509050612889919061288d565b5090565b6128af91905b808211156128ab576000816000905550600101612893565b5090565b905600a165627a7a723058204ebb3b8ddeee95a4659c83e24d03a5b880b521b36794658df3388da38615fc500029",
  "source": "pragma solidity ^0.4.23;\r\n\r\nimport \"../node_modules/openzeppelin-solidity/contracts/token/ERC721/ERC721.sol\";\r\n\r\ncontract StarNotary is ERC721 { \r\n\r\n    struct Star { \r\n        string name;\r\n        string story;\r\n        string dec;\r\n        string mag;\r\n        string cent;                \r\n    }\r\n\r\n    mapping(uint256 => Star) public tokenIdToStarInfo; \r\n    mapping(uint256 => uint256) public starsForSale;\r\n    uint256[] generatedTokenIds;   \r\n\r\n    event PutForSell(\r\n        uint256 indexed _tokenId,\r\n        uint256 indexed _price\r\n    );\r\n\r\n    /**\r\n     Create a new star\r\n     */\r\n    function createStar(string _name, string _story, string _dec, string _mag, string _cent, uint256 _tokenId) public { \r\n\r\n        // ensure the star doesn't exist already (coordinate check)\r\n        require(checkIfStarExist(_dec, _mag, _cent) == false, \"This star was already claimed!\");\r\n        \r\n        Star memory newStar = Star(_name, _story, _dec, _mag, _cent);   // create instance of Start\r\n        tokenIdToStarInfo[_tokenId] = newStar;                          // save the newStar object in the tokenIdToStarInfo hash table\r\n        _mint(msg.sender, _tokenId);                                    // mint the new star        \r\n        generatedTokenIds.push(_tokenId);                               // save the tokenId in the generatedTokenIds array\r\n    }           \r\n\r\n    /**\r\n     Put a star for sale\r\n     */\r\n    function putStarUpForSale(uint256 _tokenId, uint256 _price) public { \r\n\r\n        require(this.ownerOf(_tokenId) == msg.sender, \"You can't sell a star which doesn't belong to you\");\r\n        starsForSale[_tokenId] = _price;\r\n        emit PutForSell(_tokenId, _price);         \r\n    }\r\n\r\n    function buyStar(uint256 _tokenId) public payable { \r\n\r\n        require(starsForSale[_tokenId] > 0, \"The star you try to buy is not for sale\");\r\n        \r\n        uint256 starCost = starsForSale[_tokenId];\r\n        address starOwner = this.ownerOf(_tokenId);\r\n        require(msg.value >= starCost, \"Your price doesn't fit with the star price\");\r\n\r\n        _removeTokenFrom(starOwner, _tokenId);\r\n        _addTokenTo(msg.sender, _tokenId);\r\n        \r\n        starOwner.transfer(starCost);\r\n\r\n        if(msg.value > starCost) { \r\n            msg.sender.transfer(msg.value - starCost);\r\n        }\r\n    }\r\n\r\n    /**\r\n     Utilizing star coordinates, this function will check if the coordinates have already been claimed\r\n     */\r\n    function checkIfStarExist(string _dec, string _mag, string _cent) public view returns(bool) {\r\n\r\n        bool result = false;\r\n\r\n        for (uint256 i; i < generatedTokenIds.length; i ++) {\r\n\r\n            uint256 currentTokenId = generatedTokenIds[i];\r\n            Star memory currentStar = tokenIdToStarInfo[currentTokenId];\r\n\r\n            if (\r\n                keccak256(currentStar.dec) == keccak256(_dec) &&\r\n                keccak256(currentStar.mag) == keccak256(_mag) &&\r\n                keccak256(currentStar.cent) == keccak256(_cent) ) {\r\n                \r\n                result = true;\r\n            }\r\n\r\n        }\r\n\r\n        return result;\r\n    }         \r\n\r\n    /*\r\n    function approve(address _approved, uint256 _tokenId) public {\r\n        this.approve(_approved, _tokenId);\r\n    }\r\n\r\n    function safeTransferFrom(address _from, address _to, uint256 _tokenId) public { \r\n        this.safeTransferFrom(_from, _to, _tokenId);        \r\n    }\r\n\r\n    function setApprovalForAll(address _operator, bool _approved) public { \r\n        this.setApprovalForAll(_operator, _approved);\r\n    }\r\n\r\n    function getApproved(uint256 _tokenId) public view returns (address) { \r\n        return this.getApproved(_tokenId);\r\n    }\r\n\r\n    function isApprovedForAll(address _owner, address _operator) public view returns (bool) { \r\n        return this.isApprovedForAll(_owner, _operator);\r\n    }\r\n\r\n    function ownerOf(uint256 _tokenId) public view returns (address) {\r\n        return this.ownerOf(_tokenId);\r\n    } \r\n    */    \r\n}",
  "sourcePath": "C:\\Users\\DerUU\\Desktop\\Blockchain\\Project 5 - starter code\\Project 5 - Boilerplate with Zeppelin\\smart_contracts\\contracts\\StarNotary.sol",
  "compiler": {
    "name": "solc",
    "version": "0.4.24+commit.e67f0147.Emscripten.clang"
  },
  "schemaVersion": "2.0.1",
  "updatedAt": "2018-10-28T18:08:15.542Z"
}